{
  "contractName": "SupplyChain",
  "abi": [
    {
      "constant": true,
      "inputs": [],
      "name": "owner",
      "outputs": [
        {
          "name": "",
          "type": "address"
        }
      ],
      "payable": false,
      "stateMutability": "view",
      "type": "function"
    },
    {
      "constant": true,
      "inputs": [
        {
          "name": "",
          "type": "uint256"
        }
      ],
      "name": "items",
      "outputs": [
        {
          "name": "name",
          "type": "string"
        },
        {
          "name": "sku",
          "type": "uint256"
        },
        {
          "name": "price",
          "type": "uint256"
        },
        {
          "name": "state",
          "type": "uint8"
        },
        {
          "name": "seller",
          "type": "address"
        },
        {
          "name": "buyer",
          "type": "address"
        }
      ],
      "payable": false,
      "stateMutability": "view",
      "type": "function"
    },
    {
      "inputs": [],
      "payable": false,
      "stateMutability": "nonpayable",
      "type": "constructor"
    },
    {
      "anonymous": false,
      "inputs": [
        {
          "indexed": false,
          "name": "skuForSale",
          "type": "uint256"
        }
      ],
      "name": "LogForSale",
      "type": "event"
    },
    {
      "anonymous": false,
      "inputs": [
        {
          "indexed": false,
          "name": "skuSold",
          "type": "uint256"
        }
      ],
      "name": "LogSold",
      "type": "event"
    },
    {
      "anonymous": false,
      "inputs": [
        {
          "indexed": false,
          "name": "skuShipped",
          "type": "uint256"
        }
      ],
      "name": "LogShipped",
      "type": "event"
    },
    {
      "anonymous": false,
      "inputs": [
        {
          "indexed": false,
          "name": "skuReceived",
          "type": "uint256"
        }
      ],
      "name": "LogReceived",
      "type": "event"
    },
    {
      "constant": false,
      "inputs": [
        {
          "name": "_name",
          "type": "string"
        },
        {
          "name": "_price",
          "type": "uint256"
        }
      ],
      "name": "addItem",
      "outputs": [
        {
          "name": "",
          "type": "bool"
        }
      ],
      "payable": false,
      "stateMutability": "nonpayable",
      "type": "function"
    },
    {
      "constant": false,
      "inputs": [
        {
          "name": "sku",
          "type": "uint256"
        }
      ],
      "name": "buyItem",
      "outputs": [],
      "payable": true,
      "stateMutability": "payable",
      "type": "function"
    },
    {
      "constant": false,
      "inputs": [
        {
          "name": "sku",
          "type": "uint256"
        }
      ],
      "name": "shipItem",
      "outputs": [],
      "payable": false,
      "stateMutability": "nonpayable",
      "type": "function"
    },
    {
      "constant": false,
      "inputs": [
        {
          "name": "sku",
          "type": "uint256"
        }
      ],
      "name": "receiveItem",
      "outputs": [],
      "payable": false,
      "stateMutability": "nonpayable",
      "type": "function"
    },
    {
      "constant": true,
      "inputs": [
        {
          "name": "_sku",
          "type": "uint256"
        }
      ],
      "name": "fetchItem",
      "outputs": [
        {
          "name": "name",
          "type": "string"
        },
        {
          "name": "sku",
          "type": "uint256"
        },
        {
          "name": "price",
          "type": "uint256"
        },
        {
          "name": "state",
          "type": "uint256"
        },
        {
          "name": "seller",
          "type": "address"
        },
        {
          "name": "buyer",
          "type": "address"
        }
      ],
      "payable": false,
      "stateMutability": "view",
      "type": "function"
    }
  ],
  "bytecode": "0x608060405234801561001057600080fd5b50336000806101000a81548173ffffffffffffffffffffffffffffffffffffffff021916908373ffffffffffffffffffffffffffffffffffffffff1602179055506000600181905550610f03806100686000396000f3fe6080604052600436106100705760003560e01c8063ad4b9cfb1161004e578063ad4b9cfb146101f1578063bfb231d214610320578063e7fb74c71461045d578063f61c899a1461048b57610070565b806362d6bbdf146100755780638da5cb5b1461015f578063a26be999146101b6575b600080fd5b34801561008157600080fd5b506101456004803603604081101561009857600080fd5b81019080803590602001906401000000008111156100b557600080fd5b8201836020820111156100c757600080fd5b803590602001918460018302840111640100000000831117156100e957600080fd5b91908080601f016020809104026020016040519081016040528093929190818152602001838380828437600081840152601f19601f820116905080830192505050505050509192919290803590602001909291905050506104c6565b604051808215151515815260200191505060405180910390f35b34801561016b57600080fd5b5061017461067e565b604051808273ffffffffffffffffffffffffffffffffffffffff1673ffffffffffffffffffffffffffffffffffffffff16815260200191505060405180910390f35b3480156101c257600080fd5b506101ef600480360360208110156101d957600080fd5b81019080803590602001909291905050506106a3565b005b3480156101fd57600080fd5b5061022a6004803603602081101561021457600080fd5b81019080803590602001909291905050506107cf565b60405180806020018781526020018681526020018581526020018473ffffffffffffffffffffffffffffffffffffffff1673ffffffffffffffffffffffffffffffffffffffff1681526020018373ffffffffffffffffffffffffffffffffffffffff1673ffffffffffffffffffffffffffffffffffffffff168152602001828103825288818151815260200191508051906020019080838360005b838110156102e05780820151818401526020810190506102c5565b50505050905090810190601f16801561030d5780820380516001836020036101000a031916815260200191505b5097505050505050505060405180910390f35b34801561032c57600080fd5b506103596004803603602081101561034357600080fd5b810190808035906020019092919050505061097a565b604051808060200187815260200186815260200185600381111561037957fe5b60ff1681526020018473ffffffffffffffffffffffffffffffffffffffff1673ffffffffffffffffffffffffffffffffffffffff1681526020018373ffffffffffffffffffffffffffffffffffffffff1673ffffffffffffffffffffffffffffffffffffffff168152602001828103825288818151815260200191508051906020019080838360005b8381101561041d578082015181840152602081019050610402565b50505050905090810190601f16801561044a5780820380516001836020036101000a031916815260200191505b5097505050505050505060405180910390f35b6104896004803603602081101561047357600080fd5b8101908080359060200190929190505050610a9b565b005b34801561049757600080fd5b506104c4600480360360208110156104ae57600080fd5b8101908080359060200190929190505050610d07565b005b60007f4627c48065af2a9648cbecdd4b9da340c00e501243cd49a8a71c30c987e8b7616001546040518082815260200191505060405180910390a16040518060c0016040528084815260200160015481526020018381526020016000600381111561052d57fe5b81526020013373ffffffffffffffffffffffffffffffffffffffff168152602001600073ffffffffffffffffffffffffffffffffffffffff16815250600260006001548152602001908152602001600020600082015181600001908051906020019061059a929190610e32565b50602082015181600101556040820151816002015560608201518160030160006101000a81548160ff021916908360038111156105d357fe5b021790555060808201518160030160016101000a81548173ffffffffffffffffffffffffffffffffffffffff021916908373ffffffffffffffffffffffffffffffffffffffff16021790555060a08201518160040160006101000a81548173ffffffffffffffffffffffffffffffffffffffff021916908373ffffffffffffffffffffffffffffffffffffffff16021790555090505060018054016001819055506001905092915050565b6000809054906101000a900473ffffffffffffffffffffffffffffffffffffffff1681565b8060028060038111156106b257fe5b6002600084815260200190815260200160002060030160009054906101000a900460ff1660038111156106e157fe5b146106eb57600080fd5b6002600084815260200190815260200160002060040160009054906101000a900473ffffffffffffffffffffffffffffffffffffffff168073ffffffffffffffffffffffffffffffffffffffff163373ffffffffffffffffffffffffffffffffffffffff161461075a57600080fd5b60036002600086815260200190815260200160002060030160006101000a81548160ff0219169083600381111561078d57fe5b02179055507f5a98827d06afe0e04647b3aed26f1ffb77171ad9ac41603c4ef623a6638798c1846040518082815260200191505060405180910390a150505050565b60606000806000806000600260008881526020019081526020016000206000018054600181600116156101000203166002900480601f0160208091040260200160405190810160405280929190818152602001828054600181600116156101000203166002900480156108835780601f1061085857610100808354040283529160200191610883565b820191906000526020600020905b81548152906001019060200180831161086657829003601f168201915b5050505050955060026000888152602001908152602001600020600101549450600260008881526020019081526020016000206002015493506002600088815260200190815260200160002060030160009054906101000a900460ff1660038111156108eb57fe5b92506002600088815260200190815260200160002060030160019054906101000a900473ffffffffffffffffffffffffffffffffffffffff1691506002600088815260200190815260200160002060040160009054906101000a900473ffffffffffffffffffffffffffffffffffffffff16905085858585858595509550955095509550955091939550919395565b6002602052806000526040600020600091509050806000018054600181600116156101000203166002900480601f016020809104026020016040519081016040528092919081815260200182805460018160011615610100020316600290048015610a265780601f106109fb57610100808354040283529160200191610a26565b820191906000526020600020905b815481529060010190602001808311610a0957829003601f168201915b5050505050908060010154908060020154908060030160009054906101000a900460ff16908060030160019054906101000a900473ffffffffffffffffffffffffffffffffffffffff16908060040160009054906101000a900473ffffffffffffffffffffffffffffffffffffffff16905086565b806000806003811115610aaa57fe5b6002600084815260200190815260200160002060030160009054906101000a900460ff166003811115610ad957fe5b14610ae357600080fd5b600260008481526020019081526020016000206002015480341015610b0757600080fd5b8360016002600087815260200190815260200160002060030160006101000a81548160ff02191690836003811115610b3b57fe5b0217905550336002600087815260200190815260200160002060040160006101000a81548173ffffffffffffffffffffffffffffffffffffffff021916908373ffffffffffffffffffffffffffffffffffffffff1602179055506002600086815260200190815260200160002060030160019054906101000a900473ffffffffffffffffffffffffffffffffffffffff1673ffffffffffffffffffffffffffffffffffffffff166108fc60026000888152602001908152602001600020600201549081150290604051600060405180830381858888f19350505050158015610c27573d6000803e3d6000fd5b507fe64ca8c671e48636f85f3008c1dd538e36bfa74fb6f2790b56b72fcc33b879ef856040518082815260200191505060405180910390a1600060026000838152602001908152602001600020600201549050600081340390506002600084815260200190815260200160002060040160009054906101000a900473ffffffffffffffffffffffffffffffffffffffff1673ffffffffffffffffffffffffffffffffffffffff166108fc829081150290604051600060405180830381858888f19350505050158015610cfd573d6000803e3d6000fd5b5050505050505050565b806001806003811115610d1657fe5b6002600084815260200190815260200160002060030160009054906101000a900460ff166003811115610d4557fe5b14610d4f57600080fd5b6002600084815260200190815260200160002060030160019054906101000a900473ffffffffffffffffffffffffffffffffffffffff168073ffffffffffffffffffffffffffffffffffffffff163373ffffffffffffffffffffffffffffffffffffffff1614610dbe57600080fd5b600280600086815260200190815260200160002060030160006101000a81548160ff02191690836003811115610df057fe5b02179055507feaf695929fec8154f0eafe7248c0e16855eb9ad09e623be92f669e544d53e856846040518082815260200191505060405180910390a150505050565b828054600181600116156101000203166002900490600052602060002090601f016020900481019282601f10610e7357805160ff1916838001178555610ea1565b82800160010185558215610ea1579182015b82811115610ea0578251825591602001919060010190610e85565b5b509050610eae9190610eb2565b5090565b610ed491905b80821115610ed0576000816000905550600101610eb8565b5090565b9056fea165627a7a72305820e222ae8744eff6f8d07a6d5cd204a4c570ec07ddc3d8c7583e110b9f2ef803ab0029",
  "source": "/*\r\n    This exercise has been updated to use Solidity version 0.5\r\n    Breaking changes from 0.4 to 0.5 can be found here: \r\n    https://solidity.readthedocs.io/en/v0.5.0/050-breaking-changes.html\r\n*/\r\n\r\npragma solidity ^0.5.0;\r\n\r\ncontract SupplyChain {\r\n\r\n    /* set owner */\r\n    address public owner;\r\n\r\n    /* Add a variable called skuCount to track the most recent sku # */\r\n    uint private skuCount;\r\n\r\n    /* Add a line that creates an enum called State. This should have 4 states\r\n        ForSale\r\n        Sold\r\n        Shipped\r\n        Received\r\n        (declaring them in this order is important for testing)\r\n    */\r\n    enum State {\r\n        ForSale,    \r\n        Sold,       \r\n        Shipped,    \r\n        Received    \r\n    }\r\n\r\n    /* Create a struct named Item.\r\n        Here, add a name, sku, price, state, seller, and buyer\r\n        We've left you to figure out what the appropriate types are,\r\n        if you need help you can ask around :)\r\n        Be sure to add \"payable\" to addresses that will be handling value transfer\r\n    */\r\n    struct Item {\r\n        string name;\r\n        uint sku;\r\n        uint price;\r\n        State state;\r\n        address payable seller;\r\n        address payable buyer;\r\n    }\r\n\r\n    /* Add a line that creates a public mapping that maps the SKU (a number) to an Item.\r\n     Call this mappings items\r\n    */\r\n    mapping (uint => Item) public items;\r\n\r\n    /* Create 4 events with the same name as each possible State (see above)\r\n        Prefix each event with \"Log\" for clarity, so the forSale event will be called \"LogForSale\"\r\n        Each event should accept one argument, the sku \r\n    */\r\n    event LogForSale(\r\n        uint skuForSale\r\n    );    \r\n\r\n    event LogSold(\r\n        uint skuSold\r\n    ); \r\n\r\n    event LogShipped(\r\n        uint skuShipped\r\n    ); \r\n\r\n    event LogReceived(\r\n        uint skuReceived\r\n    );     \r\n    \r\n    /* Create a modifer that checks if the msg.sender is the owner of the contract */\r\n    modifier checkSenderAsOwner() {\r\n        require(owner == msg.sender);\r\n        _;\r\n    }\r\n\r\n    // Verify the caller as buyer\r\n    modifier verifyCaller (address _address) {\r\n        require (msg.sender == _address);\r\n        _;\r\n    }\r\n    \r\n    //Check if buyer has submitted at least the price\r\n    modifier paidEnough(uint _price) {\r\n        require(msg.value >= _price);\r\n        _;\r\n    }\r\n    \r\n    //Returns any excess payment from buyer above the item's price\r\n    modifier checkValue(uint _sku) {\r\n    //refund them after pay for item (why it is before, _ checks for logic before func)\r\n        _;\r\n        uint _price = items[_sku].price;\r\n        uint amountToRefund = msg.value - _price;\r\n        items[_sku].buyer.transfer(amountToRefund);\r\n    }\r\n\r\n    /* For each of the following modifiers, use what you learned about modifiers\r\n       to give them functionality. For example, the forSale modifier should require\r\n       that the item with the given sku has the state ForSale.\r\n       \r\n       Note that the uninitialized Item.State is 0, which is also the index of the ForSale value,\r\n       so checking that Item.State == ForSale is not sufficient to check that an Item is for sale.\r\n       Hint: What item properties will be non-zero when an Item has been added?\r\n    */\r\n    modifier checkState(uint _sku, State _state) {\r\n        require(items[_sku].state == _state);      //check state of item\r\n        _;\r\n    }\r\n    \r\n    constructor() public {\r\n        /* Here, set the owner as the person who instantiated the contract\r\n           and set your skuCount to 0. */\r\n        owner = msg.sender;     //set owner\r\n        skuCount = 0;\r\n    }\r\n\r\n    //Add initial item and assign seller as the one adding item\r\n    function addItem(string memory _name, uint _price) public returns(bool){\r\n        emit LogForSale(skuCount);\r\n        items[skuCount] = Item({name: _name, sku: skuCount, price: _price, state: State.ForSale, seller: msg.sender, buyer: address(0)});\r\n        skuCount = skuCount + 1;\r\n        return true;\r\n    }\r\n\r\n    /* Add a keyword so the function can be paid. This function should transfer money\r\n    to the seller, set the buyer as the person who called this transaction, and set the state\r\n    to Sold. Be careful, this function should use 3 modifiers to check if the item is for sale,\r\n    if the buyer paid enough, and check the value after the function is called to make sure the buyer is\r\n    refunded any excess ether sent. Remember to call the event associated with this function!*/\r\n\r\n    function buyItem(uint sku) \r\n        public payable \r\n        checkState(sku, State.ForSale)       //check item is ForSale\r\n        paidEnough(items[sku].price)        //check if buyer sends at least the item's price\r\n        checkValue(sku) {                     //Returns any excess above item's unit price\r\n            items[sku].state = State.Sold;     //set to Sold\r\n            items[sku].buyer = msg.sender;      //set buyer\r\n            items[sku].seller.transfer(items[sku].price);   //send payment from buyer to seller\r\n            emit LogSold(sku);               \r\n    }\r\n\r\n    /* Add 2 modifiers to check if the item is sold already, and that the person calling this function\r\n    is the seller. Change the state of the item to shipped. Remember to call the event associated with this function!*/\r\n     \r\n    function shipItem(uint sku)\r\n        public\r\n        checkState(sku, State.Sold)          //check if Sold already\r\n        verifyCaller(items[sku].seller) {     //check if item seller is the msg.caller\r\n            items[sku].state = State.Shipped;\r\n            emit LogShipped(sku);\r\n    }\r\n\r\n    /* Add 2 modifiers to check if the item is shipped already, and that the person calling this function\r\n    is the buyer. Change the state of the item to received. Remember to call the event associated with this function!*/\r\n    function receiveItem(uint sku)\r\n        public\r\n        checkState(sku, State.Shipped)          //check if Shipped already\r\n        verifyCaller(items[sku].buyer) {     //check if item buyer is the msg.caller\r\n            items[sku].state = State.Received;\r\n            emit LogReceived(sku);        \r\n    }\r\n    \r\n    /* We have these functions completed so we can run tests, just ignore it :) */\r\n    function fetchItem(uint _sku) public view returns (string memory name, uint sku, uint price, uint state, address seller, address buyer) {\r\n        name = items[_sku].name;\r\n        sku = items[_sku].sku;\r\n        price = items[_sku].price;\r\n        state = uint(items[_sku].state);\r\n        seller = items[_sku].seller;\r\n        buyer = items[_sku].buyer;\r\n        return (name, sku, price, state, seller, buyer);\r\n    }\r\n\r\n}\r\n",
  "sourcePath": "C:/Users/tuanp/ConsensysDev/supply-chain-exercise-Tuanp703/contracts/SupplyChain.sol",
  "compiler": {
    "name": "solc",
    "version": "0.5.8+commit.23d335f2.Emscripten.clang"
  },
  "schemaVersion": "3.0.17",
  "updatedAt": "2019-11-07T03:14:15.614Z",
  "networkType": "ethereum",
  "devdoc": {
    "methods": {}
  },
  "userdoc": {
    "methods": {}
  }
}